:020000040000FA
:10000000C895FF1F890600009106000093060000B6
:100010009506000097060000990600000000000009
:100020000000000000000000000000009B0600002F
:100030009D060000000000009F060000A1060000D1
:10004000A3060000A3060000A3060000A30600000C
:10005000A3060000A3060000A3060000A3060000FC
:10006000A3060000A3060000A3060000A3060000EC
:10007000A3060000A3060000A3060000A3060000DC
:10008000A3060000A3060000A3060000A3060000CC
:10009000A3060000A3060000A3060000A3060000BC
:1000A000A3060000A3060000A3060000A3060000AC
:1000B000A3060000A3060000A3060000A30600009C
:1000C000A3060000A3060000A3060000A30600008C
:1000D000A3060000A3060000A3060000A30600007C
:1000E000A3060000A3060000A3060000A30600006C
:1000F000A3060000A3060000A3060000A30600005C
:10010000A3060000330A0000A3060000A3060000B7
:10011000A3060000A3060000A3060000A30600003B
:10012000A3060000A3060000A3060000A30600002B
:10013000A3060000A3060000A3060000A30600001B
:10014000A3060000A3060000A3060000A30600000B
:10015000A3060000A3060000950C0000290D000076
:10016000A3060000A3060000A3060000A3060000EB
:10017000A3060000A3060000A3060000A3060000DB
:10018000A3060000A3060000A3060000A3060000CB
:10019000A3060000A3060000A3060000A3060000BB
:10040000FFFFFFFFFFFFFFFFFFFFFFFFFEFFFFFFFD
:1004100000F002F800F05CF80AA090E8000C8244BA
:100420008344AAF10107DA4501D100F051F8AFF297
:10043000090EBAE80F0013F0010F18BFFB1A43F0C2
:100440000103184724650000446500000A444FF08A
:10045000000C10F8013B13F0070408BF10F8014B23
:100460001D1108BF10F8015B641E05D010F8016B68
:10047000641E01F8016BF9D113F0080F1EBF10F8CC
:10048000014BAD1C0C1B09D16D1E58BF01F801CBEF
:10049000FAD505E014F8016B01F8016B6D1EF9D572
:1004A0009142D6D370470000002300240025002687
:1004B000103A28BF78C1FBD8520728BF30C148BFC7
:1004C0000B6070471FB506F034FA1FBD10B510BDA4
:1004D00006F0F5F91146FFF7F5FF00F0A3F906F075
:1004E00013FA03B4FFF7F2FF03BC06F01BFA000097
:1004F0004CF220505F49C8814DF62810C8814FF456
:10050000E97008804FF488105B49486406205B4915
:100510000870002048700846C07800F03F0040F0A6
:100520002000C87000200871487100BF53488079CE
:1005300010F0100FFAD000BF5048807910F00C0F67
:10054000FAD170474D4A127812F0C00F66D14B4A6B
:10055000527912F0400F51D1484A127812F0040F2C
:1005600018D1454A526812F0010F01D1444801E008
:100570004FF40040414A1278C2F3C20301229A406C
:10058000D1B2B0FBF1F03D4A527812F0300F03D0F7
:10059000400901E04FF40040384AD27802F0E0020E
:1005A00012F01F0F28D15211082A25D2DFE802F0DD
:1005B00004080C1014181C2000EB8002D0011CE071
:1005C00000EB8002100218E0C0EB0012D00114E032
:1005D00000EB8002500210E04FF4377250430CE001
:1005E0004FF4B762504308E040F69502504304E0F0
:1005F00040F67132504300E000BF30E01F4A1279EC
:1006000002F01F02511C1E4AB2FBF1F01B4A527944
:1006100002F01F0202F11801484320E0174A127845
:1006200002F0C002402A09D1144A527812F0010F98
:1006300002D14FF4004012E0114810E00F4A127846
:1006400002F0C002802A09D10B4A526812F0010F51
:1006500001D10B4803E04FF4004000E07047064A28
:10066000526C012303EB1272B0FBF2F2054B1A60DD
:1006700000BFF3E700200540008004400040064032
:1006800000093D000080FF1F0948804709480047D6
:10069000FEE7FEE7FEE7FEE7FEE7FEE7FEE7FEE732
:1006A000FEE7FEE704480549034A054B7047000092
:1006B000F104000011040000C891FF1FC895FF1F3E
:1006C000C891FF1FB649096861B92821B54A116070
:1006D0001E21B54A11601421B44A1160B44A116058
:1006E000B44A1160AE490968012916D1AC490968BC
:1006F00000F1140202EB4101AA4A1160A8490968FD
:1007000000F10A0202EB4101A74A1160A749086003
:10071000A7490860A749086083E0A1490968022940
:1007200018D19F49096800F1230202EB41019D4A5B
:1007300011609B49096800F1140202EB41019A4AD9
:10074000116000F10A01994A1160994A1160994AB1
:10075000116066E092490968042919D19049096835
:1007600000F1280202EB41018E4A11608C490968B0
:1007700001EB410200F1190111448B4A116000F1B3
:1007800014018A4A11608A4A11608A4A116048E05D
:100790008349096808290FD100F13C01814A1160A1
:1007A0000A39814A11601939804A1160804A116002
:1007B000491D804A116034E07949096809290FD13F
:1007C00000F11E01774A11600A39774A11600A392F
:1007D000764A1160764A11601931764A116020E03C
:1007E0006F490968C1EBC10101446E4A11606C494F
:1007F000096801EB810101446B4A1160684909688D
:1008000000EB4101694A11606549096800EB41014B
:10081000674A11606249096801EB41010144654A78
:10082000116070471CB500BF1321052003F0A6F925
:100830004FF4E13148F2DA6005F0F8F901220221C3
:100840005D4805F022FA03F0B7FB02F028FB00F048
:1008500017FB00F03DFB00F064FB01F077FA01F0BC
:10086000B9FA01F0D5FA02F0EAFD02F0F7FF01F063
:1008700053FB4B49086001F07AFB5049086001F0D6
:1008800083FB4F4908602820FFF71CFF02F0EEFBB6
:1008900002F0FEFB962003F0CBFB02F0FFFB96205C
:1008A00003F0C6FB02F0F4FB322003F0C1FB02F0C0
:1008B000F5FB642003F0BCFB02F0EAFB322003F0FE
:1008C000B7FB02F0EBFB40F2DC5003F0B1FB012080
:1008D00001F02BF802208DF80000092001906846F5
:1008E00004F064FC01220021022004F018FD08E05D
:1008F00002F067FC334A3449072002F03DFF02F062
:10090000E8FEF5E70EB53148029000208DF80200B0
:100910008DF803000420ADF8000006208DF80400D7
:10092000684604F0BFF80EBD10B5294800681428C9
:1009300003DA0421254804F0F2FA25480068282843
:1009400003DA0421214804F013FB214800683C2805
:1009500003DA04211D4804F0E2FA1D480068642807
:1009600003DA0421194804F003FB194800686428DD
:1009700002DD0020164908600421144804F0CFFA73
:1009800013480068401C1249086010BD04460D461B
:10099000224629460FA005F07DFB00BFFEE70000C0
:1009A000EC80FF1FA880FF1FAC80FF1FA480FF1FEB
:1009B000B080FF1FB480FF1F00C00640E480FF1F0F
:1009C000E880FF1F3085FF1FB084FF1F80F00F40BD
:1009D0000480FF1F6173736572745F6661696C6583
:1009E000643A6C696E653A25642025730D0A00002F
:1009F00010B5F9480088282802DA01F0C6F817E097
:100A000002F046FBF5480068022804DD4FF4FA6165
:100A1000002001F073F8F1480068022808DC00218A
:100A2000084601F06BF802F039FB462000F01BFA93
:100A300010BD08B565200090E94805F0D2FA4620BF
:100A400000F011FA6946E64805F0F4FA002877D07C
:100A50009DF80000362848D008DCA0F131000528B8
:100A60006CD2DFE800F00C0F1222320037284CD095
:100A7000382850D0392854D061285FD158E003F08D
:100A800069FA5CE0FFF7B4FF59E0D6480068401C03
:100A9000D4490860D4480068401CD3490860D34852
:100AA0000068401CD149086049E0CE480068401DFC
:100AB000CC490860CC480068401DCB490860CB4851
:100AC0000068401DC949086039E0C6480068401EFA
:100AD000C4490860C4480068401EC3490860C34850
:100AE0000068401EC149086029E0BE480068401FF8
:100AF000BC490860BC480068401FBB490860BB484F
:100B00000068401FB949086019E0B9480068401CF6
:100B1000B749086013E0B6480068401EB449086051
:100B20000DE0B4480068401CB249086007E007E0E7
:100B3000B0480068401EAF49086000E000BF00BF39
:100B40009DF8000032280DD0462000F01F02012140
:100B5000914042094FF0E02303EB8202C2F80011FA
:100B600000BF00BF08BDF0B5B0B0002100220023D7
:100B700000BF06E0002018AC44F821004DF8210029
:100B8000491C1829F6DB01214AE09B4D55F821400C
:100B9000002C01DB254600E06542984E3668984FF0
:100BA0003F68F01BC61700EB9676B610B5420BDD1A
:100BB000182A09DA904850F8210018AC44F82200AD
:100BC0004DF82210521C2AE08C4C24688C4D2D6864
:100BD000641B052594FBF5F5874C54F8210000288B
:100BE00001DB044600E04442A54218DA182A16DA6E
:100BF0007E2914DA804850F821007F4D4C1C55F8AE
:100C00002440604300280ADD2C46481C54F820008C
:100C100018AC44F82200481C4DF82200521C491C14
:100C20008029B2DB00212AE0022A00DA2AE018A893
:100C300050F82100002805DD18AC481C54F82000AD
:100C400000280ADB18A850F82100002816DA18AC92
:100C5000481C54F82000002810DD481C5DF82000D6
:100C60005DF82140001B022808DD481C5DF82000CB
:100C70005DF82140001B1B2800DA5B1C491C501E3C
:100C80008842D1DC00BF022B02DD012030B0F0BD74
:100C90000020FBE710B5012000F047FE00F064FAE9
:100CA00000F0FBFB02F0E6FD01F065FE01F09EF8AE
:100CB0004A4908605348007808B900F066FF464882
:100CC0000088B0F57A7F0DDD4E48007850B9FFF707
:100CD0004AFF4C49087008460078012802D10020DC
:100CE0003D49088048480078012806D147480068F7
:100CF0005A2802DA00204349087042480078012847
:100D000008D143480068012804D100204149086007
:100D1000FFF76EFE30480088401C2F4908800021F4
:100D2000022004F08DFB10BD10B5012000F0FDFD88
:100D300000F01AFA00F0B1FB01F01DFE01F056F8C8
:100D40002649086024480088282802DA00F01DFFA0
:100D500038E002F09DF92148006840431F490968C6
:100D6000484342F2107188420EDC1C480068052896
:100D70000ADD1A4800684043184A126800FB02F175
:100D8000002000F0BBFE1DE01448006840431349FA
:100D90000968484342F21071884207DD0F48006835
:100DA000052803DD002000F0A9FE0BE00021084625
:100DB00000F0A4FE02F072F90020074908804720E5
:100DC00000F051F804480088401C034908800021C5
:100DD000032004F035FB10BD0880FF1FDC80FF1FDF
:100DE00000C00640AC80FF1FB080FF1FB480FF1F13
:100DF0001081FF1F1481FF1F3086FF1F5080FF1FCF
:100E00005480FF1F0A80FF1FFA80FF1F0081FF1F11
:100E1000E880FF1F2081FF1F10B500220024002161
:100E2000002300BF17E0144850F82100012801D129
:100E30000A4605E0104850F82100401C00D10C463D
:100E4000601F904206DD2AB1A01A1B2802DA5B1C43
:100E500000220024491C8029E5DB032B01D101205D
:100E600010BD0020FCE700F01F0201219140034A61
:100E7000430942F8231070473088FF1F80E100E0EB
:100E800010B5FE48FE498860012088700020C870B7
:100E90000A20088008200871084603F003FEF7487E
:100EA000F8498860012088700020C87003200880FD
:100EB00008200871084603F0F5FDF348F34908607F
:100EC0000020486001200881084604F05AFB10BD4C
:100ED00010B5EA484038EE4988600120887000204B
:100EE000C8701120088008200871084603F0DAFD58
:100EF000E248E8498860012088700020C870092015
:100F0000088008200871084603F0CCFDE248E34958
:100F100008600020486001200881084604F031FB89
:100F200010BD10B5D548DE498860012088700020CA
:100F3000C870088008200871084603F0B3FDCF4848
:100F4000D8498860012088700020C870142008806B
:100F500008200871084603F0A5FDD348D34908606E
:100F60000020486001200881084604F00AFB10BDFB
:100F7000002100BF00E0491C8142FCDB704770B5D6
:100F8000054600240A21BD4803F0F2FF0321BB48B7
:100F900003F0EEFF2846FFF7EBFF0A21B74803F006
:100FA000BEFF2846FFF7E4FF0321B44803F0B7FF74
:100FB0002846FFF7DDFF0A21B04803F0D9FF284695
:100FC000FFF7D6FFB04804F005FCB94908700321CB
:100FD000AA4803F0CDFF012414E02846FFF7C8FF1C
:100FE0000321A64803F09BFF2846FFF7C1FFA64850
:100FF00004F0F0FBAE4908550321A04803F0B8FF08
:10100000601CC4B2802CE8DB2846FFF7B1FF0A2140
:101010009A4803F084FF2846FFF7AAFF0A21974861
:1010200003F0A6FF70BD70B505460024112193485A
:10103000403803F074FF284602F0D9FF09218F4899
:1010400003F06DFF284602F0D2FF11218B48403893
:1010500003F08EFF284602F0CAFF0921874803F0FB
:1010600087FF8D4804F0B6FB92490855012414E02F
:10107000284602F0BCFF0921804803F050FF2846B3
:1010800002F0B5FF09217D4803F072FF824804F0A9
:10109000A1FB88490855601CC4B2802CE8DB2846B7
:1010A00002F0A5FF0921754803F039FF284602F038
:1010B0009EFF0921714803F05BFF70BD70B50546C6
:1010C000002400216D4803F053FF14216B4803F006
:1010D0004FFF2846FFF74CFF0021684803F01FFF31
:1010E0002846FFF745FF1421644803F018FF2846FF
:1010F000FFF73EFF0021614803F03AFF2846FFF763
:1011000037FF694804F066FB801F6B4908701421A3
:101110005A4803F02DFF012415E02846FFF728FF69
:101120001421564803F0FBFE2846FFF721FF5E48D6
:1011300004F050FB801F6049085514214F4803F00C
:1011400017FF601CC4B2802CE7DB2846FFF710FFB6
:1011500000214A4803F0E3FE2846FFF709FF00217B
:10116000464803F005FF70BD70B5ADF5806D0024F5
:10117000002500264FF48061684605F076FB4F4855
:1011800000684F4908604F4800684F4908600020D8
:101190004A4908604B4908604C4908604C4908605E
:1011A0004C4908604C4800684C4908604C4800684D
:1011B0004C490860002048490860FF204849086001
:1011C00000204949086000BF09E03949601C085CFB
:1011D000095D411A444A601C42F82010641C7F2CAF
:1011E000F3DB002414E03248005D3B490968884283
:1011F00003DD2F48005D384908602D48005D3849FF
:101200000968884203DA2A48005D35490860641C91
:10121000802CE8DB3048006831490968401A3049C1
:101220000968884207DA2D4800682B4908602D4874
:1012300000682B49086028490968294A12688818FB
:1012400000EBD071C1F34701284A117022490968A7
:101250001278881800EBD071C1F34701234A11704E
:101260001D4A12681E4B1B68D11801EBD1721F4B2F
:101270001B7803EB620000EBD07239E040F00F40C6
:10128000308CFF1F3C8CFF1F80100030488CFF1FEC
:10129000548CFF1F608CFF1F401000246C8CFF1FBC
:1012A000788CFF1F848CFF1F00200038908CFF1F5C
:1012B000B084FF1F3085FF1FB085FF1F2880FF1FF0
:1012C0004880FF1F2C80FF1F4C80FF1F3080FF1FB6
:1012D0003880FF1F3480FF1F5080FF1F5880FF1F82
:1012E0005480FF1F5C80FF1F3086FF1F1480FF1F8C
:1012F000C2F34702FE4B1A7000240DE0FD48005D6A
:10130000FB490978884203DA0020FA49085502E0CF
:101310000120F8490855641C802CEFDB012411E002
:10132000601EF449085C095D88420AD0F148015DFD
:101330000246601C105C814203D01146601C085CB0
:101340000855641C7F2CEBDB0020EB49086001246E
:101350001DE0E848015D601EE64A105C814204DD44
:101360000120E54941F8240010E0E248015D601EDB
:10137000E04A105C814205DA4FF0FF30DE4941F867
:10138000240003E00020DC4941F82400641C802C88
:10139000DFDB002408E0D748005D20B9D7480068AB
:1013A000401CD6490860641C402CF4DB402408E053
:1013B000D048005D20B9D2480068401CD049086080
:1013C000641C802CF4DB002424E0CA48005D70B962
:1013D000C849601C085C50B9A01C085C012806D1F3
:1013E000E01C085C012802D1601CC6490860C148A5
:1013F000005D01280DD1BF49601C085C012808D19F
:10140000A01C085C28B9E01C085C10B9A01CBE49EF
:101410000860641C7D2CD8DB002408E0B548005D22
:1014200020B9BA480068401CB8490860641CB34839
:1014300000688442F2DB7F2408E0AE48005D20B9FA
:10144000B3480068401CB2490860641EAC4800689C
:10145000C0F17F00A042F0DBA848046809E0A5487D
:10146000005D012804D1AB480068401CA949086010
:10147000641CA3480068C0F18000A042EFDCA648CD
:101480000068A64908609E4800689C490968401A9F
:10149000A14908600DF5806D70BD70B50020002277
:1014A000002100239E4C23609E4C2360FF239E4C12
:1014B0002360192017E09D4B1B5C9A4C2468A342C3
:1014C00003DD9A4B1B5C974C2360984B1B5C964C3E
:1014D0002468A34203DA954B1B5C934C2360934B27
:1014E0001B5C1944401C6128E5DB482391FBF3F2A7
:1014F0008C4B1B688C4C24681B1B8B4C2468A342B0
:101500000BDA7B4B1B789A4203DB0023884C237059
:1015100029E0FF23864C237025E0824C2468824D0D
:101520002D68631903EBD374C4F34704804D2C700A
:101530007C4C24682D78631903EBD374C4F34704FF
:101540007B4D2C70774D2D68774E3668AC1904EBC7
:10155000D475774E367806EB650303EBD375C5F388
:101560004705734E357000200DE0704B1B5C704CCE
:101570002478A34203DA00236C4C235402E00123B5
:101580006A4C2354401C8028EFDB0023694C236005
:1015900001201DE0654B1C5C431E644DEB5C9C42CE
:1015A00004DD0123634C44F8203010E05F4B1C5CE9
:1015B000431E5E4DEB5C9C4205DA4FF0FF335D4C01
:1015C00044F8203003E000235A4C44F82030401CFB
:1015D0008028DFDB19201CE0544B1C5C1D46431C9B
:1015E000EB5C1C44831CEB5C2344012B04DD4C4B63
:1015F0001B685B1C4A4C23604C4B1C5C1D46431C07
:10160000EB5C1C44831CEB5C2344022B00DA02E0FD
:10161000401C5F28E0DB00BF70BD70B5ADF5806D8C
:101620000024002500264FF48061684605F01DF96E
:1016300041480068414908604148006841490860E4
:1016400000203D4908603E4908603F4800683F4926
:1016500008603F4800683F49086000203A49086038
:10166000FF203B49086000BF14E03B48005D36495D
:101670000968884203DD3848005D33490860364810
:10168000005D33490968884203DA3348005D304918
:101690000860641C802CE8DB2B4800682C49096832
:1016A000401A2B490968884207DA28480068264909
:1016B0000860284800682649086023490968244AC8
:1016C0001268881800EBD071C1F34701234A1170EA
:1016D0001D4909681278881800EBD071C1F34701E1
:1016E0001E4A1170184A1268194B1B68D11837E04E
:1016F0001480FF1FB084FF1F3088FF1F2880FF1F4A
:101700002C80FF1F3C80FF1F4080FF1F3080FF1F89
:101710003480FF1F3880FF1F4480FF1F9C80FF1F05
:101720002080FF1F6080FF1F6480FF1F3085FF1F28
:101730001580FF1F308AFF1F8080FF1F8C80FF1FD6
:101740008480FF1F9080FF1F7080FF1F7880FF1F25
:101750007480FF1F7C80FF1FB085FF1F1680FF1F56
:1017600001EBD172D24B1B7803EB620000EBD0721D
:10177000C2F34702CE4B1A7000240DE0CD48005D45
:10178000CB490978884203DA0020CA49085502E0AB
:101790000120C8490855641C802CEFDB012411E0AE
:1017A000601EC449085C095D88420AD0C148015DD9
:1017B0000246601C105C814203D01146601C085C2C
:1017C0000855641C7F2CEBDB002408E0B948005D61
:1017D00020B9B9480068401CB7490860641C402C17
:1017E000F4DB402408E0B348005D20B9B34800684A
:1017F000401CB2490860641C802CF4DBB0480068CF
:10180000B0490860B0480068B0490968401AB0495A
:1018100008600DF5806D70BD70B50020AD4C23687B
:10182000206807E0AC4C245C012C01D0024603E0A8
:101830000246401C8028F5DB00BFA64C206807E06C
:10184000A54C245C012C01D0014603E00146401E5A
:101850000028F5DA00BF8C1804EBD4756D109D4E8E
:10186000356035462D68EC1A01D4254600E0654206
:10187000062D0CDD03EBC3040A2594FBF5F5954C0E
:1018800024680A2694FBF6F42C44924D2C608A427C
:1018900002DB541A914D2C6070BD00200021904A4B
:1018A00012688B4B1B68D01A704710B5A6B0142273
:1018B0008C4921A804F0A7FF022429E0A01E864934
:1018C000085C21994843611E834A515C229A01FBBE
:1018D00002008149095D239A01FB02017E4A601CD6
:1018E000105C249A00FB02117B4AA01C105C259A14
:1018F00000FB0210DDE921121144239A1144249ABD
:101900001144259A114490FBF1F001A90855641C7B
:101910007E2CD3DB022404E001A8005D6E4908554B
:10192000641C7E2CF8DB26B010BD7CB506466E48E4
:1019300001906E48009001AB6C4600256C48406CED
:1019400040F480606A4948640846406840F40030CA
:1019500048600846406C40F0080048640846406C07
:1019600040F4007048643046FFF702FB6048806C2A
:1019700040F480605E4988640846806840F4003026
:10198000886000BF81E05A48806C40F008005849E8
:1019900088640846806C40F4007088643046FFF725
:1019A000E7FA1868C0F30160524951F8200020F0AE
:1019B0001F001968C1F301614E4A42F821001868FE
:1019C000C0F30160114651F82000196840EA9160A7
:1019D000C1F3016142F821003046FFF7C9FA00BFA8
:1019E0001868C0F30160434951F8200010F0800FDF
:1019F000F6D0404810301968C1F3016150F8210059
:101A0000801F354948553046FFF7B2FA2068C0F3C9
:101A10000160384951F8200020F01F002168C1F30F
:101A20000161344A42F821002068C0F30160114688
:101A300051F82000216840EA9160C1F3016142F849
:101A4000210000BF2068C0F301602A4951F820003E
:101A500010F0800FF6D0274810302168C1F30161E3
:101A600050F82100801F244948552148406C40F01F
:101A700008001F4948640846406C40F40070486400
:101A80003046FFF775FA681CC5B2802DFFF67BAFB4
:101A90001748806C40F00800154988640846806C3F
:101AA00040F4007088643046FFF762FA7CBD0000A5
:101AB0001680FF1FB085FF1F8080FF1F8480FF1FDF
:101AC0008880FF1FA080FF1F2C80FF1F2880FF1F22
:101AD0004480FF1F1880FF1FB084FF1F1C80FF1F62
:101AE0009C80FF1F406900008010003040100024DF
:101AF00000F00F4000B003403085FF1F70B5044672
:101B00000D4621469F4802F0DDFC29469E4802F022
:101B1000D9FC70BD9D48006830B1042808D0082861
:101B200007D009280DD108E03C209949086008E059
:101B300007E03C209649086003E041209449086092
:101B400000BF00BF7047914800680A2817D2DFE83D
:101B500000F0160506160A1616160E1213E03720A8
:101B60008B4908600FE03C20894908600BE03C206D
:101B70008749086007E041208549086003E03C2070
:101B80008349086000BF00BF704710B581490868ED
:101B9000C11700EB9171804A126802EBA1017C4AE7
:101BA0001268914205DB7A480068401C7849086059
:101BB00011E078490868C11700EB9171764A126804
:101BC00002EBA101724A1268914204DA704800687F
:101BD000401E6F4908606D480068092811D16D48A2
:101BE00000680A2190FBF1F06B49096808446849D4
:101BF0000968884205DB66480068401C6449086043
:101C000014E062480068092810D1624800680A217F
:101C100090FBF1F06049096808445D490968884211
:101C200004DA5B480068401E59490860574800685C
:101C300010B946205649086058480078012806D156
:101C400057480068322802DA432051490860554855
:101C50000078012801D1FFF776FF534800680C286F
:101C600001DAFFF757FF4A48006850490968401AEF
:101C70004F490860084600684E490968401A4E49B5
:101C800008604B4800684B4908604C480068484968
:101C900009684B4A126801FB020147480068494A3B
:101CA000126800FB0210454908600846006842F2CD
:101CB0001071884202DD0846404908603F480068CC
:101CC000002804DD00213D480068FFF717FF3B486E
:101CD000006800280DDC394800683B49884202DA78
:101CE0000846364908603548006841420020FFF741
:101CF00005FF2D480068401C2B49086010BD2B498A
:101D00000968324A116011460968052908DA40F667
:101D1000B831884204DD2E49097809B940F2DC5017
:101D2000224909681C4A1268914202DD0121284AB1
:101D3000117027490978012907D1B0F5FA5F04DD50
:101D40001A4909680A2900DA0020704700B589B0ED
:101D500042F2107005900B48069000208DF820008C
:101D6000079005A802F035FC42F210700190064879
:101D7000029000208DF81000039001A802F029FCC9
:101D800009B000BD0081100010821000EC80FF1F20
:101D9000A480FF1F2080FF1FB480FF1FFA80FF1F59
:101DA0000081FF1FF780FF1FBC80FF1FDC80FF1F2B
:101DB000C480FF1FC880FF1FCC80FF1FB880FF1F9B
:101DC000D080FF1FD480FF1FF0D8FFFFD880FF1FF7
:101DD000C080FF1F0EB50B480090C8200290012064
:101DE0008DF80400684604F069FB0EBD10B5064886
:101DF00004F018FC05490860034804F094FC03480B
:101E0000006810BD7156341200000440E080FF1FCE
:101E100000B599B06348189000208DF85A008DF8ED
:101E20005B000F20ADF8580006208DF85C0016A866
:101E300002F038FE5B48159000208DF84E008DF8BA
:101E40004F000E20ADF84C0006208DF8500013A86E
:101E500002F028FE5348129000208DF842008DF8C1
:101E600043000D20ADF8400006208DF8440010A876
:101E700002F018FE4B480F9000208DF836008DF8C8
:101E800037000C20ADF8340006208DF838000DA87E
:101E900002F008FE43480C9000208DF82A008DF8CF
:101EA0002B000B20ADF8280006208DF82C000AA886
:101EB00002F0F8FD3B48099000208DF81E008DF8D7
:101EC0001F000A20ADF81C0006208DF8200007A88E
:101ED00002F0E8FD3348069000208DF812008DF8DE
:101EE00013000920ADF8100006208DF8140004A896
:101EF00002F0D8FD2B48039000208DF806008DF8E5
:101F000007000820ADF8040006208DF8080001A89D
:101F100002F0C8FD19B000BD10B500240F21214802
:101F200003F0E6F808B9012000E0002004440E2187
:101F30001C4803F0DDF808B9012000E0002004EBA4
:101F400040040D21174803F0D3F808B9012000E040
:101F5000002004EB80040C21124803F0C9F808B9F2
:101F6000012000E0002004EBC004204610BD10B5A5
:101F700000240B210B4803F0BBF808B9012000E056
:101F800000200444204610BD10B500240A21054855
:101F900003F0AEF808B9012000E000200444204618
:101FA00010BD000080F00F4010B504462146FA48ED
:101FB00002F088FA10BD10B5F8480068C0F1400082
:101FC000F749086008460068F6490968401AF6496A
:101FD0000860F3480068F3490860F14A1068002877
:101FE00001DB024600E04242ED4B1B6802FB03F1BD
:101FF00001EBD172521002F57A62EB4B1B6803EBD6
:10200000830302EB4302E94B1A601846006841F271
:102010008831884203DD08461946086008E0E34835
:10202000006840F6B831884202DA0846DF490860A5
:10203000DE48006880B2FFF7B7FF10BD02460021FE
:10204000DB48C0680F283DDADA48C0680F2839DA63
:102050001068962801DD00201060D7480068D44B36
:10206000D860D6480068D34BD860D5480068D54BB7
:10207000D8601846006841F2CC03984202DD184649
:10208000D04B1860CF48006840F67463984202DA7B
:102090001846CC4B1860CB480068B0F57A6F04DD69
:1020A000C84800681438C74B1860C6480068B0F5C7
:1020B0007A6F04DAC34800681430C24B1860C14814
:1020C00000687047002112E0B94B481C53F820000B
:1020D00043F82100B74B481C53F8200043F8210077
:1020E000B84B481C53F8200043F82100491C032931
:1020F000EADBB1480068AE4BD860B0480068AD4B31
:10210000D860AF480068AF4BD860AD480068D8E7EA
:10211000AD48006850B9AD480068AD490860084650
:102120000068AC4908600120A7490860A848006819
:1021300041F2CC01884202DD0846A5490860A44866
:10214000006840F67461884202DA0846A0490860D7
:102150009F480068B0F57A6F04DD9D4800680A3832
:102160009B4908609A480068B0F57A6F04DA98488D
:1021700000680A309649086095480068B0F57A6FA3
:1021800008DD95480068012804D091480068401D8A
:102190008F4908608E480068B0F57A6F08DA8E487B
:1021A0000068012804D08A480068401F88490860F8
:1021B00087490968B1F57A6001D4014600E04142DF
:1021C000322907DA84490968012903D08148006867
:1021D0007F4908607E490968B1F57A6001D40146FB
:1021E00000E04142142902DA00207749086078486B
:1021F0000068704710B5002200240021002332211E
:1022000013E0764850F82100012801D10A4605E084
:10221000724850F82100401C00D10C46A24203DA5B
:1022200012B15B1C00220024491C6429E9DB022B4B
:1022300001DB012010BD0020FCE730B500240022A6
:10224000002500210023322117E0644850F82100C6
:10225000012801D10C4605E0604850F82100401CDF
:1022600000D10A46A24207DA32B1A01A0A2803DADC
:102270005B1C154600240022491C6429E5DB012B68
:102280000DD1294605E05648405C012800D102E006
:10229000491C6429F7DB00BF642900D15B1C022BB9
:1022A00001DB012030BD0020FCE7F0B50023002257
:1022B0000027002100244D1E002000BF1CE0494ED5
:1022C00056F82160012E01D10B4605E0454E56F827
:1022D0002160761C00D10A469E1CB2420BDA52B134
:1022E0009E1A0F2E07DA9E1806EBD67C4FEA6C0575
:1022F000641C00230022491C8029E0DB012C06D14C
:10230000402D00DBA01E402D02DA012000E000205D
:10231000F0BD0020304909680A2918D2DFE801F031
:1023200005080B170E171717111440F2023011E0B1
:102330004FF416700EE04FF42F700BE040F2EE20D9
:1023400008E04FF43E7005E04FF42F7002E04FF4C8
:102350007A7000BF00BF70471F4800680A2851D23A
:10236000DFE800F005090D500E5050500F480020D6
:102370001D49086050E00A201B4908604CE04BE012
:102380004AE0072019490860042019490860002024
:102390001549086040E0000002520C001880FF1F41
:1023A0002C81FF1F3081FF1F3881FF1F3481FF1FE9
:1023B0005C81FF1F6C81FF1F2C80FF1F2880FF1F87
:1023C0001881FF1F7C81FF1F9081FF1F9880FF1FD6
:1023D0008C81FF1F9481FF1FEC80FF1F308AFF1F3D
:1023E0003085FF1F3088FF1F0881FF1F1081FF1FEE
:1023F0001481FF1F0520FE490860FE490860FE4960
:10240000086009E00420FA4908600520F9490860DD
:102410000A20F949086000BF00BF704730B5044684
:10242000F64800680A283BD2DFE800F005090D3ABB
:10243000113A3A3A202C0620ED4A106034E006208A
:10244000EB4A106030E00620E94A10602CE0081EDC
:1024500001DB024600E04242052392FBF3F2921DAB
:10246000E34B1A600520E34A10601DE0081E01DB03
:10247000024600E04242052392FBF3F2D21DDC4B00
:102480001A6011E00A1E01DB134600E053421846B1
:10249000DB1700EB93739B10DB1DD54D2B6003E026
:1024A0000A20D34A106000BF00BF30BDF0B504461B
:1024B000002300220021002700254E1E0020014697
:1024C0001FE0CF4850F82100012801D10B4605E05C
:1024D000CB4850F82100401C00D10A469A420EDA3F
:1024E0006AB1981A41280ADA981A1E2807DD981846
:1024F00000EBD07C4FEA6C066D1C00230022481CC8
:1025000001468029DDDB012D09D144B9402E01DBD4
:102510000120F0BD402E04DA4FF0FF30F9E7002033
:10252000F7E700BFF5E710B50246B44800680A288F
:1025300074D2DFE800F0051A2FD344D3D3D374A3A9
:10254000B0480068C0F14600162390FBF3F0C01CB1
:10255000A74B1860AB480068C0F146000F2390FB02
:10256000F3F0C01CA34B1860CDE0A6480068C0F192
:102570004600132390FBF3F0C01C9D4B1860A1484C
:102580000068C0F14600052390FBF3F0801D994BD5
:102590001860B8E09B480068C0F146000F2390FB2C
:1025A000F3F0801C924B186096480068C0F146001A
:1025B0000F2390FBF3F0801C8E4B1860A3E0914832
:1025C0000068C0F146000F2390FBF3F0C01C884B5D
:1025D0001B68984205DB86480068401C844B1860E5
:1025E00004E083480068401E814B186085480068FD
:1025F000C0F146000F2390FBF3F0801C7D4B1B685D
:10260000984205DB7B480068401C7A4B186004E068
:1026100078480068401E774B186074E05EE07948A7
:102620000068C0F14600032390FBF3F0801C704B60
:102630001B68984205DB6E480068401C6C4B1860B4
:1026400004E06B480068401E694B18606D480068E4
:10265000C0F146000A2390FBF3F0001D654B1B6898
:10266000984205DB63480068401C624B186004E038
:1026700060480068401E5F4B186044E0614B1B6877
:10268000C3F14600C31700EB93739B109B1C584C7F
:102690002468A34205DB56480068401C544B186070
:1026A00004E053480068401E514B186055480068CC
:1026B000C0F14600052390FBF3F0001D4D4B1B6855
:1026C000984205DB4B480068401C4A4B186004E008
:1026D00048480068401E474B186014E049480068AD
:1026E000C0F146000C2390FBF3F0C01C404B186077
:1026F00044480068C0F146000C2390FBF3F0C01C76
:102700003C4B186000BF00BF10BD00203B4909686A
:102710000A2942D2DFE801F0410506410741414163
:10272000192B3BE03AE03749096832290CDD36497C
:1027300009683C2908DA354909683C2904DA344932
:102740000978012900D1012028E02E4909683229A1
:102750000CDD2D4909683B2908DA2C4909683B2919
:1027600004DA2B490978012900D1012016E0254916
:102770000968282910DD2649097801290CD1254945
:1027800009680A2908DD204909683B2903DC1F493B
:1027900009683B2900DD012000E000BF00BF704751
:1027A00016480068042804D0082849D0092875D1A3
:1027B00075E0194800683B2809DC144800683B288C
:1027C0000DDD1248006810490968884207DD10488D
:1027D000007820B90120114908700D4908700E4891
:1027E000006810F13B0F22DB074800683B2817E028
:1027F0001081FF1F1481FF1F0881FF1FEC80FF1F46
:102800003088FF1F2080FF1F2880FF1F2C80FF1FA4
:10281000F780FF1F0C81FF1F4480FF1FF580FF1F03
:102820000DDDFE480068FE490968884207DDFD4865
:10283000007820B90120FC490870FA49087098E036
:10284000FA4800683C2809DCF54800683C280DDDA2
:10285000F3480068F1490968884207DDF1480078CB
:1028600020B90120F2490870EE490870EF4800686D
:1028700010F13C0F09DBE94800683C280DDDE74812
:102880000068E7490968884207DDE648007820B912
:102890000120E5490870E34908706AE03BE0E3483D
:1028A00000683C2809DCDE4800683C2814DDDC4870
:1028B0000068DA49096888420EDDDA48007858B9BC
:1028C000DC4800680A2807DD0120D9490870D5498D
:1028D00008700020D7490860D448006810F13C0F08
:1028E00009DBCE4800683C2814DDCC480068CC49A0
:1028F000096888420EDDCB48007858B9CD48006899
:102900000A2807DD0120C8490870C6490870002060
:10291000C84908602DE0C54800683B2809DCC0486C
:1029200000683B280DDDBE480068BC490968884244
:1029300007DDBC48007820B90120BD490870B949BD
:102940000870BA48006810F13B0F09DBB348006813
:102950003B280DDDB1480068B1490968884207DDB0
:10296000B048007820B90120AF490870AD4908701F
:1029700000BF00BF704770B500240025FFF710FFAF
:10298000FFF7C3FE0446AC48006832280CDDA348BC
:102990000068372808DAA2480068372804DAA14816
:1029A0000078012800D101241CB300209D49087043
:1029B0009F4908709C490870A0490870A0490860A8
:1029C000A04800681E2806DD00209F4908609F4936
:1029D00008609F4908709B480068462807DD9A48B0
:1029E00000689A490860984800689A49086000F0B1
:1029F00055FB8C48007870B98C480068964908608F
:102A00000846006895490968401A95490860924847
:102A1000006892490860924801688F480068FFF793
:102A200082FD85480068422802DD00208449086054
:102A3000834800688B490968884201DAFFF78CFCFB
:102A40008548006888490968484385490968874A74
:102A5000126801FB020086490860774800681E285A
:102A60000CDA70480078012808D17448007828B939
:102A700001207249087000207E490860694800788A
:102A8000FFF714FD7C49086060B108460068012822
:102A900002D16749087002E00120634908700120F3
:102AA000604908705F480078012863D16148006878
:102AB0000A2802DD00205F4908606948016866480D
:102AC0000068FFF7ABFC5E48006866490968884209
:102AD00001DAFFF741FC56480078012824D14F481D
:102AE00000684F49096808445B4908600846006867
:102AF0005A490968884203DA58480068564908600C
:102B000055480068554908605348006856490968A7
:102B10004843574908604948007801282AD1FFF7FF
:102B2000F8FB5349086025E03C48006840423C49B6
:102B30000968401A4849086008460068474909681A
:102B4000884203DD45480068434908604248006800
:102B5000424908604048006843490968484344497D
:102B6000086036480078012804D1FFF7D2FB4042C4
:102B70003F4908603E48006800F57A603E490860B9
:102B80003148006800BB2F4800681E281CDD00206B
:102B90003A4908603A49086000F080FA264800681F
:102BA000372803DDFFF781FB2749086026480068C6
:102BB00050B1002023490860234800682349086079
:102BC0002148006823490860FFF737FB60B11F48C0
:102BD000006848B10620294908601C4800681A4965
:102BE0000860002017490860FFF704FB60B119482E
:102BF000006848B10620214908601648006812495B
:102C0000086000200F4908600F480068D0B31B48D7
:102C10000068032850DD0B48006834E02880FF1F5F
:102C20002C80FF1FF780FF1FF680FF1F4480FF1FCF
:102C3000F580FF1F0C81FF1F2080FF1FF880FF1F02
:102C40000481FF1F4881FF1F2081FF1F2481FF1F78
:102C5000F980FF1F2881FF1F3C81FF1F4081FF1F5C
:102C60004481FF1F0881FF1F1081FF1F1481FF1F78
:102C70001881FF1FBC80FF1F5481FF1F4C81FF1F65
:102C80005081FF1F18E0052816DDD04800689628FF
:102C900012DDCF48006801280ED1CE48006800EB55
:102CA0004001C1EBC0104FF47A6101EBC000CA498A
:102CB00008600120C9490870C648006860B1C8486A
:102CC0000068032808DCC74800681E2804DD0020CF
:102CD000C0490860C2490860C3480078BE281DDDAD
:102CE000C2480078BE2819DDC14800685A2815DBA3
:102CF000C0480078012803D10020BE4908700AE0CE
:102D00000120BC490870BC480068BC490860BC4848
:102D10000068BC4908600020B5490860B5480078E3
:102D200001281DD1B24800685A2819DAA84800685D
:102D3000012815D1AE4800681E2804DAFFF7E8F92B
:102D4000A54908600AE0B0480068B0490968401A1F
:102D500000EB800000F57A609F49086000F098F968
:102D60009D480068AA4908609848FFF767F9A84994
:102D700008600846006841F28831884202DD084652
:102D8000A3490860A248006840F6B831884202DAD8
:102D900008469F49086093480068401C91490860B4
:102DA00093480068401C9249086088480068401CAD
:102DB0008649086097480068401C96490860964814
:102DC0000068401C94490860914800688A4908607E
:102DD0008F48006880B2FFF7E7F870BD8F48016840
:102DE0008F4800680A30814201DD012070470020D1
:102DF000FCE730B54025002140224023402107E078
:102E00008848405C012801D10A4600E002E0491EE2
:102E10000029F5DC00BF402107E08248405C012822
:102E200001D10B4600E002E0491C8029F5DB00BF20
:102E30002C2A03DA4A2B01DAA3F11402362A03DD25
:102E4000542B01DD02F11403D41804EBD4704010AC
:102E500030BD10B50023002200210024192116E006
:102E6000714850F82100012801D10B4605E06E4859
:102E700050F82100401C00D10A469A4206DA2AB1D5
:102E8000981A0A2802DA641C00230022491C5F29D0
:102E9000E6DB022C01DB012010BD0020FCE700B5C1
:102EA00087B04FF49670614908606148486000201F
:102EB00008734FF47A608860084601F08AFB5D4829
:102EC000069000208DF812008DF813001120ADF847
:102ED000100005208DF8140004A801F0E3FD55480A
:102EE000039000208DF806008DF807001320ADF840
:102EF000040005208DF8080001A801F0D3FD07B0FB
:102F000000BD002040490968404A1268881A4A49B1
:102F10000978012903D13821394A116003E06FF0A3
:102F20003701374A1160704770B505460024002606
:102F300000BF13E0285D2F2809DD285D3A2806DA56
:102F4000285D06EB860100EB4100A0F13006295D0B
:102F50003A4802F0BDFF61202855641C0A2CE9DBC9
:102F600042F2107096FBF0F03549086042F21070A2
:102F700096FBF0F100FB11603249086008460068DA
:102F8000642190FBF1F02F490860642096FBF0F17A
:102F900000FB11602C490860084603682948026854
:102FA0002748016829A003F075F8462000F01F02A9
:102FB0000121914042094FF0E02303EB8202C2F865
:102FC000001100BF00F0C6FF70BD00005881FF1F58
:102FD000E480FF1F2081FF1F5481FF1FF780FF1F28
:102FE0004C81FF1F4881FF1F9C84FF1F9D84FF1F92
:102FF0000081FF1FFA80FF1F1C81FF1F9880FF1FA9
:103000004480FF1F1880FF1F2C80FF1F2880FF1F98
:103010001881FF1F0481FF1F0C81FF1F3C80FF1FD1
:103020004080FF1FB084FF1F308AFF1F9C8CFF1F52
:1030300002520C0040F00F40F580FF1F00C0064018
:10304000A480FF1F1081FF1F1481FF1F20745F7376
:10305000706565642C4B702C4B6420202564202007
:10306000256420202025640D0A0000000EB51848B4
:10307000029000208DF802008DF803000520ADF8C5
:10308000000008208DF80400684601F00BFD0EBD1D
:1030900010B505210E4801F042FF10BD10B5052105
:1030A0000B4801F065FF10BD10B5044609480068E3
:1030B000A04202DAFFF7ECFF04E0FFF7EFFF002089
:1030C0000449086003480068401C0249086010BDBC
:1030D00000F00F409C81FF1FF0B50346CD0105EBCA
:1030E000C304202A10DB7E2A0EDC00200AE0A2F1B5
:1030F000200500EBC505FE4E755D2618FD4FBD553C
:10310000451CE8B20828F2DBF0BDF0B506460F46D4
:103110001546002407E02A5D3119C8B23946FFF789
:10312000DBFF601CC4B2285D0028F4D1F0BD70B58F
:103130000346002200BF0A2593FBF5F605FB163473
:1031400093FBF5F3EC4D2D682D5D8D54521C002B37
:10315000F1D100258D545410521E002010E00D5C5A
:10316000161A8E5D75400D54151A4D5D0E5C754036
:10317000161A8D550D5C161A8E5D75400D54401C47
:10318000A042ECDB70BD70B586B005460E46144615
:10319000142101A803F069FB01A92046FFF7C7FF2E
:1031A00001AA31462846FFF7B0FF06B070BD0020E7
:1031B00003E00021CF4A1154401CB0F5806FF8DBCA
:1031C000704770B50025FFF7F2FFCCA2002108463A
:1031D000FFF79BFFCB48002102680420FFF7D3FFD5
:1031E000C9480068002805DAC8A200210720FFF7B7
:1031F0008CFF04E0C6A200210720FFF786FFC2482B
:103200000468002C01DB204600E0604202460021F9
:103210000820FFF7B8FFBF48002102680C20FFF725
:10322000B2FFBDA201210020FFF76FFFBC480121C2
:1032300002680420FFF7A7FFBA480278012108209E
:10324000FFF7A1FFB848012102680C20FFF79BFFA0
:10325000B6A202210020FFF758FFB64802210268FB
:103260000520FFF790FFB448022102680920FFF70C
:103270008AFFB248022102680D20FFF784FFB0A246
:1032800003210020FFF741FFAF4803210268062019
:10329000FFF779FFAD48032102680920FFF773FFAC
:1032A000AB48032102680C20FFF76DFFA9A204219F
:1032B0000020FFF72AFFA848042102680220FFF738
:1032C00062FFA648042102680620FFF75CFFA448BD
:1032D000042102680A20FFF756FFA2480421026871
:1032E0000D20FFF750FFA048052102680020FFF7DE
:1032F0004AFF9E48052102680320FFF744FF9C48CF
:103300000078012805D19BA205210620FFF7FDFECC
:1033100004E099A205210620FFF7F7FE9748007800
:10332000012805D193A205210720FFF7EEFE04E056
:1033300091A205210720FFF7E8FE914800780128B7
:1033400005D18CA205210820FFF7DFFE04E08AA248
:1033500005210820FFF7D9FE8A480078012805D109
:1033600084A205210920FFF7D0FE04E082A20521F6
:103370000920FFF7CAFE84480468002C01DB2046C0
:1033800000E06042024605210D20FFF7FCFE70BD03
:1033900070B50446002517E014F0800F04D00F210B
:1033A0007A4801F0BCFD03E00F21784801F0E0FD10
:1033B0001021764801F0B3FD1021744801F0D8FDCA
:1033C0006006040E681CC5B2082DE5DB0F216F48AE
:1033D00001F0A5FD10216D4801F0A1FD10216B4801
:1033E00001F0C6FD70BD10B504461021674801F01C
:1033F00096FD0F21654801F092FD0F21634801F011
:10340000B7FD1021614801F0B3FD7820FFF7C0FF40
:103410000020FFF7BDFF2046FFF7BAFF10215B48F1
:1034200001F0A6FD0F21594801F0A2FD10215748D7
:1034300001F075FD0F21554801F071FD10BD0EB56D
:103440001020ADF8000000208DF802008DF8030078
:1034500008208DF804004D480290684601F022FBD8
:103460000F20ADF8000000208DF802008DF8030059
:1034700008208DF8040045480290684601F012FBD0
:10348000AE20FFF7B0FF2020FFF7ADFF1020FFF7C1
:10349000AAFFB020FFF7A7FFC820FFF7A4FF002076
:1034A000FFF7A1FF1020FFF79EFF4020FFF79BFFD3
:1034B0008120FFF798FF7F20FFF795FFA120FFF7FE
:1034C00092FFA620FFF78FFFA820FFF78CFF3F2079
:1034D000FFF789FFA420FFF786FFD320FFF783FFC4
:1034E0000020FFF780FFD520FFF77DFFF0204FE0A1
:1034F000A081FF1FAC8CFF1F9884FF1F4343443AF9
:10350000000000002880FF1F4480FF1F2D000000E6
:10351000200000002C80FF1F432D563A00000000C1
:103520005080FF1F1480FF1F5480FF1F4C494E45E1
:103530003A0000003080FF1F3880FF1F3480FF1FDB
:1035400053544545523A00001081FF1F1481FF1F5C
:103550001881FF1F563A0000AC80FF1FA480FF1F98
:10356000B480FF1FDC80FF1F6080FF1F6480FF1F8F
:10357000F580FF1F5400000046000000F680FF1F8A
:10358000F780FF1FF880FF1F1880FF1F00F00F401B
:10359000FFF729FFD920FFF726FF2220FFF723FF9F
:1035A000DA20FFF720FF1220FFF71DFFDB20FFF7D7
:1035B0001AFF2020FFF717FF8D20FFF714FF1420BC
:1035C000FFF711FFAF20FFF70EFF0EBD70B50446E9
:1035D0000D4605F1B001C8B2FFF705FF102141EA21
:1035E0001410FFF700FF04F00F00FFF7FCFE70BDA2
:1035F00010B504461021954801F091FC0F21934825
:1036000001F08DFC0F21914801F0B2FC10218F4890
:1036100001F0AEFC7820FFF7BBFE4020FFF7B8FEBC
:103620002046FFF7B5FE1021884801F0A1FC0F21CC
:10363000864801F09DFC1021844801F070FC0F21A8
:10364000824801F06CFC10BD2DE9F04706460C469F
:10365000154606F1AF001FFA80F904F00F00401E76
:103660001FFA80FAC4F3031000F1100809F0FF00FC
:10367000FFF7B9FE4046FFF7B6FE0AF0FF00FFF77E
:10368000B2FE002704E02878FFF7B2FF6D1C7F1C14
:10369000062FF8D3BDE8F08770B50646002415E084
:1036A00004F1B001C8B2FFF79EFE0020FFF79BFEB9
:1036B0001020FFF798FE002504E03046FFF798FF42
:1036C000681CC5B2802DF8DB601CC4B2082CE7DB97
:1036D00070BD70B50026002418E004F1B001C8B236
:1036E000FFF781FE0020FFF77EFE1020FFF77BFE34
:1036F000002507E03146761C554A505CFFF778FFFD
:10370000681CC5B2802DF5DB601CC4B2082CE4DB5C
:1037100070BD70B504460D4605F1B001C8B2FFF7A3
:1037200062FE102141EA1410FFF75DFE04F00F0164
:1037300041F00100FFF757FE70BD70B5002418E09E
:1037400004F1B001C8B2FFF74EFE0020FFF74BFEB8
:103750001020FFF748FE002507E00A2000F068FC73
:10376000FF20FFF745FF681CC5B2802DF5DB601C0C
:10377000C4B2082CE4DB70BD2DE9F04105460E46CD
:103780001746192412E0385D012807D17E21681EF2
:1037900004EBC01019382E4A115406E01821681E97
:1037A00004EBC01019382A4A1154641C642CEADB5B
:1037B0002848062102680B20FFF7E5FC2648006830
:1037C000002806DAAFF2BC2206210E20FFF79DFC8E
:1037D00005E0AFF2C42206210E20FFF796FC1E483A
:1037E000D0F80080B8F1000F01DB404601E0C8F1DD
:1037F0000000024606210F20FFF7C5FC002420E050
:10380000305D012805D17E2004EBC511104A5054CB
:1038100004E0182004EBC5110D4A50543E2C05D08D
:103820003F2C03D0402C01D0412C09D104EBC51012
:103830000749085C40F0810004EBC511044A50546C
:10384000641C802CDCDBBDE8F081000000F00F4040
:10385000AC8CFF1F2080FF1F2081FF1F10B50B487D
:103860000B4908600020486001200881084601F0EB
:1038700088FE10BD10B50748007807490870034856
:1038800001F0A8FF0349087010BD00004046004841
:10389000AC90FF1F9C84FF1F9D84FF1FFE48007893
:1038A00010F0040F02D00120FC494870FA4800785B
:1038B00010F0020F02D00220F8494870F648007854
:1038C00010F0010F02D00320F4494870F24840780C
:1038D00010F0800F02D00420F0494870EE48407884
:1038E00010F0400F02D00520EC494870EA484078BB
:1038F00010F0200F02D00620E8494870E6484078D2
:1039000010F0040F02D00720E4494870E2484078E4
:1039100010F0020F02D00820E0494870DE484078DD
:1039200010F0010F02D00920DC494870DC48406AE1
:10393000C0F30210082825D2DFE800F004080C10BC
:1039400014181C200A20D54908701FE01420D34900
:1039500008701BE01E20D149087017E02820CF49CD
:10396000087013E03C20CD4908700FE04620CB4999
:1039700008700BE03220C949087007E03520C749BC
:10398000087003E00020C549087000BF00BFC448AC
:10399000406A00F00F00801E0D2831D2DFE800F0F1
:1039A00007300B0F13171B1F233027302B0020204D
:1039B000BA49888028E03020B849888024E0402037
:1039C000B649888020E05020B44988801CE051200E
:1039D000B249888018E06420B049888014E06820EB
:1039E000AE49888010E09020AC4988800CE0C4206B
:1039F000AA49888008E04FF48070A849888003E0D5
:103A00000020A649888000BF00BFA548406AC0F3D7
:103A1000033020B1012806D002280CD107E00A208B
:103A20009E4988700BE00B209C49887007E00C20B1
:103A30009A49887003E000209849887000BF00BF51
:103A40009748C06CC0F30360072806D0092809D046
:103A50000B280CD00F2814D10EE04FF400308F4902
:103A6000886012E04FF480208C4988600DE04FF4AC
:103A700000208A49886008E04FF400208749886068
:103A800003E000208549886000BF00BF8448006DC6
:103A900010F4000F03D000208049C86022E0804865
:103AA000C06C000F06D0072808D009280BD00F28BB
:103AB00013D10DE000207949C86012E04FF40030C6
:103AC0007649C8600DE04FF480207449C86008E072
:103AD0004FF480207149C86003E000206F49C8603E
:103AE00000BF00BF6F480068C0F30330052806D050
:103AF000072809D008280CD0092814D10EE04FF46B
:103B000000406649086112E04FF480306349086163
:103B10000DE04FF4C0306149086108E04FF4003017
:103B20005E49086103E000205C49086100BF00BFF6
:103B30005D480068594948615948406CC0F30360CA
:103B4000401C59490968B1FBF0F054498861544858
:103B5000406CC0F30350401C53490968B1FBF0F0BE
:103B60004E49C8614E48406CC0F30340401C4E496A
:103B70000968B1FBF0F049490862704770B5044626
:103B80000D461CB1052C01D0062C00D103E080218C
:103B900046A0FCF7FBFE122D09D0132D07D0112DE6
:103BA00005D0102D03D0092D01D0082D00D103E040
:103BB00081213EA0FCF7EAFE002C59D1601E384955
:103BC000486406203F490870002048700846C078C5
:103BD00020F0E000C870082D1DD0102D0DD0112D43
:103BE00027D10846C07840F0E000C87036482C491C
:103BF000486436482C49086029E03248C07840F0D3
:103C0000C0003049C8704FF0897025494864304879
:103C1000254908601BE02B48C07840F0A0002949E6
:103C2000C8704FF480301E4948642A481E49086015
:103C30000DE02448C07840F0A0002249C8704FF43D
:103C400080301749486423481749086000BF00BF07
:103C500000201C490871487100BF1A48807910F093
:103C6000100FFAD000BF1748807910F00C0FFAD16E
:103C7000062C01D0052C71D14FF0FF300849486463
:103C80000020154908700648406800F0FE0004490D
:103C9000486024200B4921E000E00740B890FF1F56
:103CA00000800440007004400080FF1F2E2E5C53F3
:103CB00052435C46574C49425C5359535C73797389
:103CC0002E630000004006400000130100D8B80534
:103CD00000A24A04006CDC020050064048709A20A2
:103CE00008700846C07800F01F00C87003200871F3
:103CF0000020487100BFA248807910F0020FFAD06E
:103D000000BF9F48807910F0100FFAD100BF9C4887
:103D1000807900F00C000828F9D1062C03D103208B
:103D20009749087104E0052C02D1182094490871C4
:103D3000A5F108000C2855D2DFE800F00611545414
:103D4000545454541C27313B40208D494871800203
:103D50008C4948648C488D4908604DE069E04820F2
:103D6000874948714FF08970864948648848874977
:103D7000086041E04C20824948714FF089708149C8
:103D8000486484488149086036E058207C4948717D
:103D900081487C49486481487C4908602CE05A206D
:103DA000774948717C48774948647D48774908607D
:103DB00022E0062C08D10120714908715A2048716F
:103DC00078487049486409E0052C07D10C206C49FB
:103DD00008715C20487173486A49486472486B49AD
:103DE000086009E0402066494871800265494864DE
:103DF00065486649086000BF00BF00BF6048807921
:103E000010F0200FFAD000BF5D48807910F0400F0D
:103E1000FAD01A205A49087000BF5948807900F03A
:103E20000C000C28F9D100BF5548807910F0400FE4
:103E3000FAD0FFF733FD70BD2DE9F05F07460C4661
:103E400015461E46072C07D0062C05D0052C03D09E
:103E5000042C01D0032C00D105E040F20D11AFF28B
:103E6000B410FCF793FD102D00D205E04FF48771DC
:103E7000AFF2C810FCF78AFD102E00D205E040F228
:103E80000F11AFF2D810FCF781FD00BF04F007015D
:103E9000464A10684FF6FF021040454A024342EA84
:103EA0000120424A106000BF38462346AC46B04667
:103EB00003F00702C2F1070BBBF1040F02D94FF068
:103EC000040B01E0C2F1070BDA4602F1040BBBF16F
:103ED000070F02D24FF0000B01E0A2F1030BD9460D
:103EE0004FF0010B0BFA0AFBABF1010B0BEA0C0BC9
:103EF0000BFA09FB4FF0010E0EFA09FEAEF1010EAE
:103F00000EEA080E4BEA0E0100BF00280ADA0A0783
:103F10004FEA126C254A0C3200F00F031B1F02F807
:103F200003C003E00A07130E224A135400BFBDE882
:103F3000F09F00BFBFF34F8F1C48006800F4E060A3
:103F40001B490843001D19490860BFF34F8F00BF8C
:103F500000BFFEE762B6704772B6704710B5044600
:103F600014F0030F00D105E040F23D11AFF2C42080
:103F7000FCF70CFD0D48001F046010BDF0207047D9
:103F80000040064000800440006CDC020080FF1FFF
:103F90000090D00300A24A040000130100D8B80525
:103FA00000E1F5050000170100C2EB0B0CED00E08D
:103FB0000000FA0500E400E010B54FF0E0200069D1
:103FC00040F004004FF0E0210861FFF767FC2C4847
:103FD00040692C49B0FBF1F02B4908700846007885
:103FE0004FF47A7110FB01F02849086010BD0146BA
:103FF000254A12784A434FF0E0235A6100229A6121
:104000001A46126942F001021A6100BF4FF0E02225
:10401000106910F0010F02D010F4803FF6D04FF07D
:10402000E022126922F001024FF0E0231A6170478A
:1040300010B5014600221FE0144B1B684FF0E0242E
:1040400063610023A36123461B6943F001032361DD
:1040500000BF4FF0E023186910F0010F02D010F4F8
:10406000803FF6D04FF0E0231B6923F001034FF0AF
:10407000E0242361531C9AB28A42DDD310BD0000B4
:10408000B890FF1F40420F00A084FF1FA484FF1FB1
:1040900030B5024600200021111D0B68C3F3030355
:1040A00023B1012B04D0022B06D103E0FE4804E02B
:1040B000FE4802E0FE4800E000BF00BF137B33B1C2
:1040C000012B64D0022B7DD0032B7CD158E1436DB2
:1040D00043F004034365436D23F001034365D0F8C7
:1040E000803023F00103C0F88030036823F0200300
:1040F000036000240B68C3F3031500F10C0343F8BD
:1041000035400B68C3F3031400F10C0353F834304B
:1041100043F028040B68C3F3031500F10C0343F8C4
:1041200035400B68C3F30313082B2DD2DFE803F0EF
:1041300004050E0F1819222300BF436E23F0040359
:104140004366436E23F0010343661EE000BF436EE7
:1041500023F480634366436E23F48073436614E064
:1041600000BF436E23F480234366436E23F4803301
:1041700043660AE000BF436E23F080634366436EEC
:1041800023F08073436600E000BF00BF98E1436DF9
:1041900043F004034365436D23F001034365D0F806
:1041A000803023F00103C0F88030036843F020031F
:1041B000036000240B68C3F3031500F10C0343F8FC
:1041C000354001E046E07AE10B68C3F3031400F1E7
:1041D0000C0353F8343043F028040B68C3F3031581
:1041E00000F10C0343F835400B68C3F30313082BAD
:1041F0002DD2DFE803F004050E0F1819222300BFAB
:10420000436E23F004034366436E23F001034366C9
:104210001EE000BF436E23F480634366436E23F4C5
:104220008073436614E000BF436E23F4802343662B
:10423000436E23F4803343660AE000BF436E23F0ED
:1042400080634366436E23F08073436600E000BFE3
:1042500000BF35E1436D43F004034365436D43F014
:1042600001034365D0F8803023F00103C0F88030AB
:10427000036823F02003036003238365836D43F009
:104280008003836500240B68C3F3031500F10C035E
:1042900043F835400B68C3F3031400F10C0353F8E3
:1042A000343043F028040B68C3F3031500F10C030A
:1042B00043F835400B68C3F30313082B5DD2DFE8E6
:1042C00003F004051A1B3031464700BF436E23F04C
:1042D00004034366436E43F001034366436E23F0D9
:1042E00002034366436E43F020034366436E23F0AC
:1042F0001003436642E000BF436E23F480634366CD
:10430000436E43F480734366436E23F40073436645
:10431000436E43F400534366436E23F48053436675
:104320002CE000BF436E23F480234366436E43F4C6
:1043300080334366436E23F400334366436E43F495
:1043400000134366436E23F48013436616E000BFF8
:10435000436E23F080634366436E43F0807343668D
:10436000436E23F000734366436E43F0005343668D
:10437000436E23F08053436600E000BF00BF00BFE0
:10438000436D43F004034365436D43F0010343650C
:10439000D0F8803023F00103C0F88030036823F0A8
:1043A000200303608523836603238365836D43F0C5
:1043B0008003836500240B68C3F3031500F10C032D
:1043C00043F835400B68C3F3031400F10C0353F8B2
:1043D000343043F028040B68C3F3031500F10C03D9
:1043E00043F835400B68C3F30313082B64D2DFE8AE
:1043F00003F004051A1B3031464700BF436E23F01B
:1044000004034366436E43F001034366436E43F087
:1044100002034366436E43F020034366436E43F05A
:104420001003436649E000BF436E23F48063436694
:10443000436E43F480734366436E43F400734366F4
:10444000436E43F400534366436E43F48053436624
:1044500033E000BF436E23F480234366436E43F48E
:1044600080334366436E43F400334366436E43F444
:1044700000134366436E43F4801343661DE000BFA0
:10448000436E23F080634366436E43F0807343665C
:10449000436E43F000734366436E43F0005343663C
:1044A000436E43F0805305E00080034000900340DA
:1044B00000800B40436600E000BF00BF00BF00BFAC
:1044C00000BF30BD2DE9F3410C46002700256E46A4
:1044D000F949009888424DD0F8490098884249D05F
:1044E000F7490098884245D0F6490098884241D063
:1044F000F549009888423DD0F4490098884239D067
:10450000F3490098884235D0F2490098884231D06A
:10451000F149009888422DD00098A0F540215039EB
:1045200028D0EE490098884224D0ED49009888426E
:1045300020D0EC49009888421CD0E049903900987E
:10454000884217D0E8490098884213D0E74900987C
:1045500088420FD0E649009888420BD0E549009880
:10456000884207D0E4490098884203D0E349009884
:10457000884200D103E0E521E1A0FCF707FA42F20E
:104580001070844200D803E0E621DDA0FCF7FEF9BC
:104590003068C0F3030020B1012804D0022806D1FE
:1045A00003E0DD4D04E0DD4D02E0DD4D00E000BF45
:1045B00000BFA868604342F21071B0FBF1F73068A9
:1045C000C0F3031105F10C0000EBC1004760BDE82A
:1045D000FC812DE9F04704460025A846261DB64972
:1045E000606888424DD0B5496068884249D0B44976
:1045F0006068884245D0B3496068884241D0B2497A
:10460000606888423DD0B1496068884239D0B0497D
:104610006068884235D0AF496068884231D0AE4981
:10462000606888422DD06068A0F54021503928D0BC
:10463000AA496068884224D0A9496068884220D08D
:10464000A849606888421CD09C49903960688842BB
:1046500017D0A5496068884213D0A4496068884291
:104660000FD0A349606888420BD0A2496068884295
:1046700007D0A1496068884203D0A0496068884299
:1046800000D104E040F207119DA0FCF77FF9207BE8
:1046900040B1207B012805D0207B022802D0207B5E
:1046A000032800D104E04FF4847195A0FCF76EF963
:1046B00042F21071A068884200D804E040F209116B
:1046C0008FA0FCF763F93068C0F3030020B1012824
:1046D0000AD0022818D10FE09248C06B40F08070D9
:1046E0009049C8638C4D10E08E48C06B40F000705C
:1046F0008C49C863894D08E08A48006B40F080709F
:1047000088490863864D00E000BF00BF3068C0F3F1
:104710008330052831D2DFE800F0030C151E270096
:10472000DFF804827F48806B40F400707D49886325
:1047300023E0DFF8F8817B48806B40F480607949A2
:1047400088631AE0DFF8E8817648806B40F4006007
:104750007449886311E0DFF8DC817248806B40F4B3
:1047600080507049886308E0DFF8CC816D48806B29
:1047700040F400506B49886300BF00BF3068C0F34D
:10478000052058F8200020F4E0603168C1F30521CD
:1047900048F821003068C0F3052058F8200031683F
:1047A000C1F383414FF4E06202EA0121084331681A
:1047B000C1F3052148F82100604880692168B0FBF9
:1047C000F1F04FF6FF71B0FBF1F0C7B2042F00DB40
:1047D00004270121B9402068484358498969B1FB41
:1047E000F0F9286820F018002860286820F00700F9
:1047F0002860286807F0070141F008010843286095
:10480000C5F808900020E8646860814601E009F17D
:1048100001094B488145FAD32046FFF739FCD4E91A
:104820000101FFF74FFEBDE8F08770B504460D4665
:1048300016463948844205D03848844202D0384868
:10484000844200D104E040F2E9112DA0FCF79EF86B
:104850000EB1012E00D104E04FF4F57128A0FCF751
:1048600095F80B2D79D2DFE805F012131415161701
:10487000181978780600012E04D1206840F0400015
:10488000206003E0206820F04000206066E000BF68
:1048900000BF00BF00BF00BF00BF00BF012E51D14D
:1048A00004F10C0050F8350040F0400104F10C0018
:1048B00040F8351050E050E00081100000030C007B
:1048C0001082100010040C002083100020050C0042
:1048D0003084100040C4100050C5100060C61000A5
:1048E00060010C0070C71000010C0C0001400C00AE
:1048F000110D0C0011410C0002520C0012530C005F
:104900002E2E5C5352435C46574C49425C46544DF4
:104910005C66746D2E6300000080034000900340CD
:1049200000800B40008004400090044000A0044040
:1049300000B0044000C0044000D00440B890FF1F05
:10494000801A060004F10C0050F8350020F04001F8
:1049500004F10C0040F8351000E000BF00BF70BD4E
:1049600070B505460C464C48854205D04B488542FB
:1049700002D04B48854200D105E040F21721AFF24A
:104980008000FCF703F80A2C0FD074B1012C0CD076
:10499000022C0AD0032C08D0042C06D0052C04D0FD
:1049A000062C02D0072C00D004B905E04FF40671A4
:1049B000AFF2B400FBF7EAFF0B2C21D2DFE804F0E2
:1049C0000E0F10111213141520200600286810F085
:1049D000800F01D0012600E0002611E000BF00BFDB
:1049E00000BF00BF00BF00BF00BF05F10C0050F8C2
:1049F000340010F0800F01D0012600E0002600BF37
:104A000000BF304670BD70B505460C4600262248F2
:104A1000854205D02148854202D02148854200D1F7
:104A200005E04FF41171AFF22810FBF7AFFF0A2C2D
:104A30000FD074B1012C0CD0022C0AD0032C08D05A
:104A4000042C06D0052C04D0062C02D0072C00D054
:104A500004B905E040F24521AFF25C10FBF796FF88
:104A600000BF0B2C15D2DFE804F008090A0B0C0D6F
:104A70000E0F141406002E680BE000BF00BF00BF2D
:104A800000BF00BF00BF00BF05F10C0050F834604C
:104A900000BF00BF70BD00000080034000900340D5
:104AA00000800B4070B5044600260025FA49A06836
:104AB000884212D0F8494031A06888420DD0F649AA
:104AC0008031A068884208D0F349C031A06888428C
:104AD00003D0F249A068884200D103E02021F0A071
:104AE000FBF754FF2088202800DA03E02121ECA006
:104AF000FBF74CFFA07810B1A078012800D103E0AB
:104B00002221E7A0FBF742FFE078B8B1E078012866
:104B100014D0E078022811D0E07803280ED0E07895
:104B200008280BD0E078092808D0E0780A2805D0BA
:104B3000E0780B2802D0E0780C2800D103E0232194
:104B4000D7A0FBF723FF207904280BD02079052874
:104B500008D02079062805D02079072802D02079AE
:104B6000082800D103E02421CDA0FBF70FFFA668A1
:104B7000C9498031701A8E421BD005DCCF483018ED
:104B800007D040282DD10CE040281AD0802828D109
:104B90001FE0CB4DCB48806B40F40070C94988635F
:104BA00020E0C94DC748806B40F48060C5498863E8
:104BB00018E0C64DC348806B40F40060C14988636B
:104BC00010E0C34DBF48806B40F48050BD498863FE
:104BD00008E0C04DBB48806B40F40050B949886381
:104BE00000E000BF00BF208855F8200020F4E060FE
:104BF000218845F82100208855F8200040F4807075
:104C0000218845F821002079072802D0207908283A
:104C100035D1706922880121914008437061208854
:104C200055F8200020F00200218845F82100A078E6
:104C3000012806D130682288012191400843306064
:104C400005E0306822880121914088433060207956
:104C5000072808D1208855F8200040F0200021883E
:104C600045F821004DE0207908284AD1208855F8E0
:104C7000200020F02000218845F8210041E0207923
:104C8000042805D02079052802D02079062838D1BB
:104C9000706922880121914088437061207904283D
:104CA00008D1208855F8200020F00200218845F81E
:104CB000210026E02079052810D1208855F8200011
:104CC00040F00200218845F82100208855F8200096
:104CD00020F00100218845F8210012E02079062803
:104CE0000FD1208855F8200040F00200218845F8B7
:104CF0002100208855F8200040F00100218845F867
:104D00002100208855F8200020F47020218845F8E3
:104D10002100208855F82000E1784FF4702202EA43
:104D200001410843218845F82100E078082826DB66
:104D300059498031701A8E4213D005DC5F48301813
:104D400007D0402819D108E040280ED0802814D17F
:104D50000FE0572000F019FA10E0582000F015FA83
:104D60000CE0592000F011FA08E05A2000F00DFA8A
:104D700004E05B2000F009FA00E000BF00BF70BD56
:104D800010B502460023444C8034101BA2420FD0C1
:104D900005DC4A48101807D040280FD106E040280B
:104DA00008D080280AD107E0454B08E0464B06E0D2
:104DB000464B04E0464B02E0464B00E000BF00BF1C
:104DC000D3F8A00001248C40204201D0012010BD66
:104DD0000020FCE710B500222F4C8034031BA042BA
:104DE0001BD005DC354BC31807D0402B2DD10CE070
:104DF000402B1AD0802B28D11FE0314A314B9B6BBE
:104E000043F400732F4CA36320E02F4A2D4B9B6B80
:104E100043F480632B4CA36318E02C4A294B9B6B13
:104E200043F40063274CA36310E0294A254B9B6B96
:104E300043F48053234CA36308E0264A214B9B6B29
:104E400043F400531F4CA36300E000BF00BFD2F83F
:104E5000A03001248C402343C2F8A03010BD0021B3
:104E6000C17004210171704770B504460D461646A5
:104E7000094884420ED00848403084420AD006488F
:104E80008030844206D005484038844202D003482E
:104E9000844221D125E0000000F00F4000F10F40D6
:104EA0002E2E5C5352435C46574C49425C47504956
:104EB0004F5C6770696F2E63000000000010F0BF48
:104EC000009004400080044000A0044000B0044072
:104ED00000C0044000D00440CD21AFF23C00FBF7FD
:104EE00055FD202D00DA04E0CE21AFF24C00FBF797
:104EF0004DFD0EB1012E00D104E0CF21AFF26000D4
:104F0000FBF744FD2EB160680121A94008436060B1
:104F100004E0A0680121A9400843A06070BD70B5FD
:104F200004460D469F4884420ED09E48403084423D
:104F30000AD09C488030844206D09A48C0308442CF
:104F400002D09948844200D104E0EA21AFF2B000D7
:104F5000FBF71CFD202D00DA04E0EB21AFF2C000CE
:104F6000FBF714FD60680121A9400843606070BD33
:104F700070B504460D468B4884420ED089484030B7
:104F800084420AD087488030844206D08648403820
:104F9000844202D08448844200D104E0FE21AFF272
:104FA0000010FBF7F3FC202D00DA04E0FF21AFF244
:104FB0001010FBF7EBFCA0680121A9400843A0609A
:104FC00070BD70B504460D46764884420ED07548D3
:104FD000403084420AD073488030844206D0724800
:104FE0004038844202D07048844200D105E040F24B
:104FF0001311AFF25410FBF7C9FC202D00DA05E0C5
:105000004FF48A71AFF26810FBF7C0FCE068012131
:10501000A9400843E06070BD70B504460D46614884
:1050200084420ED05F48403084420AD05D488030D0
:10503000844206D05C484038844202D05A488442B8
:1050400000D105E04FF49471AFF2AC10FBF79EFC79
:10505000256070BD70B504460D4600265148844257
:105060000ED05048403084420AD04E4880308442AE
:1050700006D04D484038844202D04B48844200D18B
:1050800005E04FF49E71AFF2E810FBF77FFC202D96
:1050900000DA05E040F23D11AFF2FC10FBF776FCC0
:1050A0002068E84010F0010F01D0012600E0002642
:1050B000304670BD10B504463A4884420ED0394897
:1050C000403084420AD037488030844206D0364887
:1050D0004038844202D03448844200D105E040F296
:1050E0005711AFF24420FBF751FC206880B210BD8D
:1050F00070B504460D4600262A4884420ED0294841
:10510000403084420AD027488030844206D0264866
:105110004038844202D02448844200D105E04FF454
:10512000B671AFF28420FBF731FC202D00DA05E0E8
:1051300040F26D11AFF29820FBF728FC2069E8409F
:1051400010F0010F01D0012600E00026304670BDAE
:1051500010B50446134884420ED0124840308442B1
:105160000AD010488030844206D00F48403884422C
:1051700002D00D48844200D105E040F28711AFF221
:10518000E020FBF703FC206910BD00F01F020121A5
:10519000914042094FF0E02303EB8202C2F8001174
:1051A0007047000000F00F4000F10F4070B504465A
:1051B0000025207840B12078012805D020780228E9
:1051C00002D02078032800D103E01721B7A0FBF715
:1051D000DDFBFEF763FBBB4880694FF47A71B0FBDF
:1051E000F1F0616800FB01F5B748C06B40F40000C6
:1051F000B549C863B548006820F00200B3490860AB
:105200000846006840F001000860B148217800EBD2
:1052100001100560AE48217800EB0110C06840F035
:105220000101AB48227800EB0210C160A848217848
:1052300000EB0110806840F00101A548227800EBE6
:105240000210816070BD10B504462CB1012C03D052
:10525000022C01D0032C00D103E0322193A0FBF7F4
:1052600095FB9B4800EB0410006810BD10B5044688
:105270002CB1012C03D0022C01D0032C00D103E06F
:1052800043218AA0FBF782FB914800EB04104068A1
:1052900010BD70B504460D462CB1012C03D0022C74
:1052A00001D0032C00D103E0552180A0FBF76EFB59
:1052B000874800EB0410056070BD10B504462CB1A2
:1052C000012C03D0022C01D0032C00D103E0662175
:1052D00076A0FBF75BFB7E4800EB0410806840F093
:1052E00001017B4800EB0410816010BD10B504463D
:1052F0002CB1012C03D0022C01D0032C00D103E0EF
:1053000077216AA0FBF742FB714800EB041080682C
:1053100020F001016E4800EB0410816010BD70B5F3
:1053200004460E46154606B903E08D215FA0FBF743
:105330002DFB2CB1012C03D0022C01D0032C00D169
:1053400003E08E2159A0FBF721FB0DB1012D00D107
:1053500003E08F2155A0FBF719FB002E4CD1012D46
:105360000AD15B4800EB0410806840F00201584805
:1053700000EB0410816009E0554800EB04108068E0
:1053800020F00201524800EB04108160012D19D178
:1053900034B1012C08D0022C0AD0032C10D10BE020
:1053A000442000F06DF80CE0452000F069F808E0BA
:1053B000462000F065F804E0472000F061F800E0C6
:1053C00000BF19E034B1012C08D0022C0AD0032C04
:1053D00010D10BE0442000F05FF80CE0452000F015
:1053E0005BF808E0462000F057F804E0472000F0A2
:1053F00053F800E000BF00BF70BD70B504460D4615
:1054000005B903E0BB2129A0FBF7C0FA2CB1012CA0
:1054100003D0022C01D0032C00D103E0BC2123A037
:10542000FBF7B4FA55B92A4800EB0410C06810F035
:10543000010F01D0012070BD0020FCE70020FAE739
:1054400070B504460D4605B903E0DA2117A0FBF755
:105450009DFA2CB1012C03D0022C01D0032C00D1D9
:1054600003E0DB2111A0FBF791FA194800EB0410CF
:10547000C06840F00101164800EB0410C16070BD27
:1054800000F01F020121914042094FF0E02303EB9D
:105490008202C2F80011704700F01F020121914002
:1054A0000C4A430942F82310704700002E2E5C532B
:1054B00052435C46574C49425C5049545C70697495
:1054C0002E630000B890FF1F00800440007003406E
:1054D0000071034080E100E00146086A20F04000CE
:1054E0000862486A20F00B004862486A40F00700F2
:1054F0004862486A40F08000486200BF086810F0C7
:10550000800FFBD0486A00F04000402801D1012004
:1055100070470022C86C82B2886C104482B2486C1A
:10552000104482B2086C104482B2C86B104482B23C
:10553000886B104482B2104602EBD0735A1042F4CA
:105540000042CA620022C86E82B2886E104482B2E3
:10555000486E104482B2086E104482B2C86D104486
:1055600082B2886D104482B2104602EBD0735A109A
:1055700042F400420A63486A20F08000486200203A
:10558000C6E72DE9F04105462E460027002468684D
:1055900040B16868022805D06868012802D06868B0
:1055A000032801D1012000E0002078B3686840B1F1
:1055B0006868022805D06868012802D06868032856
:1055C00001D1012000E0002002281FD0686840B10E
:1055D0006868022805D06868012802D06868032836
:1055E00001D1012000E0002001280FD0686840B1FF
:1055F0006868022805D06868012802D06868032816
:1056000001D1012000E00020032800D103E01A218D
:10561000E4A0FBF7BBF93068C0F3815088BB306869
:10562000C0F3033005282DD2DFE800F0030B131B75
:105630002300E248806B40F40070E0498863E04F4B
:1056400021E0DE48806B40F48060DC498863DD4FF8
:1056500019E0DA48806B40F40060D8498863DA4F7B
:1056600011E0D648806B40F48050D4498863D74F0E
:1056700009E0D248806B40F40050D0498863D44F91
:1056800001E01FE000BF00BF3068C0F3851057F88D
:10569000200020F4E0603168C1F3851147F8210053
:1056A0003068C0F3851057F820003168C1F303411A
:1056B0004FF4E06202EA012108433168C1F3851129
:1056C00047F821003068C0F3050010B1012810D15F
:1056D00007E0BA48C06B40F00060B849C863BD4CF1
:1056E00008E0B648006B40F00060B4490863BA4C6B
:1056F00000E000BF00BFA06820F00C00A060A06820
:105700000C22696802EA81010843A060A06820F0C9
:105710000300A060A068A060A06820F01000A06056
:10572000A06820F06000A060A06840F02000A060A9
:105730000020E0603068C0F3016020B9E06820F02C
:105740001000E06003E0E06840F01000E060E06816
:1057500040F00400E06041F23420A06145F278603E
:10576000E06118202062072060624FF4C0202065AD
:105770003068C0F3015060B93068C0F3016054F87C
:10578000200020F020003168C1F3016144F82100BD
:1057900010E03068C0F3015001280BD13068C0F32D
:1057A000016054F8200040F020003168C1F301612D
:1057B00044F821002046FFF78FFE288920B9206A8F
:1057C00040F04000206203E0206A20F040002062A8
:1057D000BDE8F08101B5002269460868C0F3050004
:1057E00010B1012804D101E07A4A02E07A4A00E0CF
:1057F00000BF00BF0868C0F3016052F8200020F02D
:105800001F000B68C3F3016342F823000868C0F36C
:10581000016052F820000B6840EA9360C3F3016313
:1058200042F8230000BF0868C0F3016052F820006E
:1058300010F0800FF7D00868C0F3016302F1100088
:1058400050F8230080B208BD2DE9F04104460D4612
:1058500017461E465F48844202D05F48844200D10A
:1058600003E0AC214FA0FBF791F807B903E0AD21AD
:105870004CA0FBF78BF80EB1012E00D103E0AE2156
:1058800048A0FBF783F87FB9012E06D154F8250014
:1058900040F0400044F8250005E054F8250020F0D1
:1058A000400044F8250000E000BF00BF012E11D1E8
:1058B00048484042201803D0B0F5002F08D103E03B
:1058C000392000F063F804E03A2000F05FF800E0CF
:1058D00000BF00BFBDE8F0812DE9F04104460D4650
:1058E00016463C48844202D03B48844200D103E043
:1058F000D2212CA0FBF74AF80DB1012D00D103E015
:10590000D32128A0FBF742F806B903E0D42125A053
:10591000FBF73CF846B954F8250010F0800F01D091
:10592000012700E0002700E000BF00BF3846BDE8C7
:10593000F08170B504460E4615462648844202D0D2
:105940002548844200D103E0F02116A0FBF71EF8A1
:1059500006B903E0F12113A0FBF718F80DB1012DF2
:1059600000D103E0F2210FA0FBF710F85EB9012D82
:1059700004D1206A40F00400206203E0206A20F095
:105980000400206200E000BF00BF70BD00F01F02F5
:105990000121914042094FF0E02303EB8202C2F85B
:1059A000001170472E2E5C5352435C46574C4942BF
:1059B0005C4144435C6164632E63000000800440EA
:1059C0000090044000A0044000B0044000C0044027
:1059D00000D0044000B0034000B00B402DE9F04778
:1059E00005460024002700262E1D6868A0F5884182
:1059F000103930D0FB49686888422CD0FA49686871
:105A0000884228D0F9496868884224D06868A0F59F
:105A1000407119391FD06868A0F5484199391AD0EA
:105A20006868A0F50641DA3915D0F14968688842FE
:105A300011D0ED494331686888420CD0ED4968685F
:105A4000884208D0EC496868884204D0E54984312E
:105A50006868884200D103E04221E8A0FAF796FF87
:105A60003068C0F3020005282CD2DFE800F0030BF9
:105A7000131B2300E848406B40F48060E64948630C
:105A8000E64C21E0E448406B40F40060E2494863A2
:105A9000E34C19E0E048406B40F48050DE49486335
:105AA000E04C11E0DC48406B40F40050DA494863B8
:105AB000DD4C09E0D848806A40F48060D6498862AD
:105AC000DA4C01E0002400BF00BF3068C0F3821050
:105AD00005282CD2DFE800F0030B131B2300CE486F
:105AE000806B40F40070CC498863D14F20E0CA48F5
:105AF000806B40F48060C8498863CE4F18E0C64888
:105B0000806B40F40060C4498863CB4F10E0C2480A
:105B1000806B40F48050C0498863C84F08E0BE489D
:105B2000806B40F40050BC498863C54F00E000BF63
:105B300000BF3068C0F3843057F8200020F4E060E4
:105B40003168C1F3843147F821003068C0F38430F4
:105B500057F820003168C1F3C2014FF4E06202EA55
:105B6000012108433168C1F3843147F821003068CE
:105B7000C0F3442057F8200020F4E0603168C1F3FE
:105B8000442147F821003068C0F3442057F8200032
:105B90003168C1F3C20102EA012108433168C1F34F
:105BA000442147F82100FDF779FEA648D0F8189067
:105BB0009A48844202D09A48844202D1A148D0F83F
:105BC000149028680001B9FBF0F01FFA80F84FEA42
:105BD00049002968B0FBF1F0A0EB481000F0FF0A83
:105BE0002078C8F304210843207084F80180A07A4B
:105BF0000AF01F010843A072E07820F00C00E0706A
:105C0000A07820F01000A070A07820F00200A07012
:105C1000607920F020006071E07840F00C00E070C6
:105C200080208949A1F88400BDE8F08733B583B0AE
:105C30000C4603AD0194039802902868C0F302005B
:105C4000052818D2DFE800F003070B0F1300734894
:105C50007E49086013E072487C4908600FE0714893
:105C60007A4908600BE070487849086007E06F489F
:105C70007649086003E000207449086000BF00BF57
:105C800001A8FFF7ABFE05B030BD70B504460E4667
:105C90001546624884420BD06148844208D061486E
:105CA000844205D06048844202D06048844200D1DA
:105CB00003E0A42151A0FAF769FE2EB1012E03D012
:105CC000022E01D0032E00D103E0A5214BA0FAF74C
:105CD0005DFE0DB1012D00D103E0A62147A0FAF72A
:105CE00055FE36B1012E10D0022E1AD0032E30D11F
:105CF00023E0012D04D1E07840F08000E07003E063
:105D0000E07820F08000E07024E0012D04D1E078FC
:105D100040F04000E07003E0E07820F04000E070E8
:105D200018E0012D04D1E07840F02000E07003E09D
:105D3000E07820F02000E0700CE0012D04D1E07844
